{
  "contractName": "UniqueAsset",
  "abi": [
    {
      "inputs": [],
      "stateMutability": "nonpayable",
      "type": "constructor"
    },
    {
      "anonymous": false,
      "inputs": [
        {
          "indexed": true,
          "internalType": "address",
          "name": "owner",
          "type": "address"
        },
        {
          "indexed": true,
          "internalType": "address",
          "name": "approved",
          "type": "address"
        },
        {
          "indexed": true,
          "internalType": "uint256",
          "name": "tokenId",
          "type": "uint256"
        }
      ],
      "name": "Approval",
      "type": "event"
    },
    {
      "anonymous": false,
      "inputs": [
        {
          "indexed": true,
          "internalType": "address",
          "name": "owner",
          "type": "address"
        },
        {
          "indexed": true,
          "internalType": "address",
          "name": "operator",
          "type": "address"
        },
        {
          "indexed": false,
          "internalType": "bool",
          "name": "approved",
          "type": "bool"
        }
      ],
      "name": "ApprovalForAll",
      "type": "event"
    },
    {
      "anonymous": false,
      "inputs": [
        {
          "indexed": true,
          "internalType": "address",
          "name": "from",
          "type": "address"
        },
        {
          "indexed": true,
          "internalType": "address",
          "name": "to",
          "type": "address"
        },
        {
          "indexed": true,
          "internalType": "uint256",
          "name": "tokenId",
          "type": "uint256"
        }
      ],
      "name": "Transfer",
      "type": "event"
    },
    {
      "inputs": [
        {
          "internalType": "address",
          "name": "to",
          "type": "address"
        },
        {
          "internalType": "uint256",
          "name": "tokenId",
          "type": "uint256"
        }
      ],
      "name": "approve",
      "outputs": [],
      "stateMutability": "nonpayable",
      "type": "function"
    },
    {
      "inputs": [
        {
          "internalType": "address",
          "name": "owner",
          "type": "address"
        }
      ],
      "name": "balanceOf",
      "outputs": [
        {
          "internalType": "uint256",
          "name": "",
          "type": "uint256"
        }
      ],
      "stateMutability": "view",
      "type": "function",
      "constant": true
    },
    {
      "inputs": [
        {
          "internalType": "uint256",
          "name": "tokenId",
          "type": "uint256"
        }
      ],
      "name": "getApproved",
      "outputs": [
        {
          "internalType": "address",
          "name": "",
          "type": "address"
        }
      ],
      "stateMutability": "view",
      "type": "function",
      "constant": true
    },
    {
      "inputs": [
        {
          "internalType": "address",
          "name": "owner",
          "type": "address"
        },
        {
          "internalType": "address",
          "name": "operator",
          "type": "address"
        }
      ],
      "name": "isApprovedForAll",
      "outputs": [
        {
          "internalType": "bool",
          "name": "",
          "type": "bool"
        }
      ],
      "stateMutability": "view",
      "type": "function",
      "constant": true
    },
    {
      "inputs": [],
      "name": "name",
      "outputs": [
        {
          "internalType": "string",
          "name": "",
          "type": "string"
        }
      ],
      "stateMutability": "view",
      "type": "function",
      "constant": true
    },
    {
      "inputs": [
        {
          "internalType": "uint256",
          "name": "tokenId",
          "type": "uint256"
        }
      ],
      "name": "ownerOf",
      "outputs": [
        {
          "internalType": "address",
          "name": "",
          "type": "address"
        }
      ],
      "stateMutability": "view",
      "type": "function",
      "constant": true
    },
    {
      "inputs": [
        {
          "internalType": "address",
          "name": "from",
          "type": "address"
        },
        {
          "internalType": "address",
          "name": "to",
          "type": "address"
        },
        {
          "internalType": "uint256",
          "name": "tokenId",
          "type": "uint256"
        }
      ],
      "name": "safeTransferFrom",
      "outputs": [],
      "stateMutability": "nonpayable",
      "type": "function"
    },
    {
      "inputs": [
        {
          "internalType": "address",
          "name": "from",
          "type": "address"
        },
        {
          "internalType": "address",
          "name": "to",
          "type": "address"
        },
        {
          "internalType": "uint256",
          "name": "tokenId",
          "type": "uint256"
        },
        {
          "internalType": "bytes",
          "name": "_data",
          "type": "bytes"
        }
      ],
      "name": "safeTransferFrom",
      "outputs": [],
      "stateMutability": "nonpayable",
      "type": "function"
    },
    {
      "inputs": [
        {
          "internalType": "address",
          "name": "operator",
          "type": "address"
        },
        {
          "internalType": "bool",
          "name": "approved",
          "type": "bool"
        }
      ],
      "name": "setApprovalForAll",
      "outputs": [],
      "stateMutability": "nonpayable",
      "type": "function"
    },
    {
      "inputs": [
        {
          "internalType": "bytes4",
          "name": "interfaceId",
          "type": "bytes4"
        }
      ],
      "name": "supportsInterface",
      "outputs": [
        {
          "internalType": "bool",
          "name": "",
          "type": "bool"
        }
      ],
      "stateMutability": "view",
      "type": "function",
      "constant": true
    },
    {
      "inputs": [],
      "name": "symbol",
      "outputs": [
        {
          "internalType": "string",
          "name": "",
          "type": "string"
        }
      ],
      "stateMutability": "view",
      "type": "function",
      "constant": true
    },
    {
      "inputs": [
        {
          "internalType": "uint256",
          "name": "tokenId",
          "type": "uint256"
        }
      ],
      "name": "tokenURI",
      "outputs": [
        {
          "internalType": "string",
          "name": "",
          "type": "string"
        }
      ],
      "stateMutability": "view",
      "type": "function",
      "constant": true
    },
    {
      "inputs": [
        {
          "internalType": "address",
          "name": "from",
          "type": "address"
        },
        {
          "internalType": "address",
          "name": "to",
          "type": "address"
        },
        {
          "internalType": "uint256",
          "name": "tokenId",
          "type": "uint256"
        }
      ],
      "name": "transferFrom",
      "outputs": [],
      "stateMutability": "nonpayable",
      "type": "function"
    },
    {
      "inputs": [
        {
          "internalType": "address",
          "name": "recipient",
          "type": "address"
        },
        {
          "internalType": "string",
          "name": "hash",
          "type": "string"
        },
        {
          "internalType": "string",
          "name": "metadata",
          "type": "string"
        }
      ],
      "name": "awardItem",
      "outputs": [
        {
          "internalType": "uint256",
          "name": "",
          "type": "uint256"
        }
      ],
      "stateMutability": "nonpayable",
      "type": "function"
    }
  ],
  "bytecode": "0x60806040523480156200001157600080fd5b506040518060400160405280600b81526020017f556e6971756541737365740000000000000000000000000000000000000000008152506040518060400160405280600381526020017f554e410000000000000000000000000000000000000000000000000000000000815250816000908051906020019062000096929190620000b8565b508060019080519060200190620000af929190620000b8565b505050620001cd565b828054620000c69062000168565b90600052602060002090601f016020900481019282620000ea576000855562000136565b82601f106200010557805160ff191683800117855562000136565b8280016001018555821562000136579182015b828111156200013557825182559160200191906001019062000118565b5b50905062000145919062000149565b5090565b5b80821115620001645760008160009055506001016200014a565b5090565b600060028204905060018216806200018157607f821691505b602082108114156200019857620001976200019e565b5b50919050565b7f4e487b7100000000000000000000000000000000000000000000000000000000600052602260045260246000fd5b61288c80620001dd6000396000f3fe608060405234801561001057600080fd5b50600436106100ea5760003560e01c806370a082311161008c578063a22cb46511610066578063a22cb4651461026f578063b88d4fde1461028b578063c87b56dd146102a7578063e985e9c5146102d7576100ea565b806370a08231146101f15780638bfaf1011461022157806395d89b4114610251576100ea565b8063095ea7b3116100c8578063095ea7b31461016d57806323b872dd1461018957806342842e0e146101a55780636352211e146101c1576100ea565b806301ffc9a7146100ef57806306fdde031461011f578063081812fc1461013d575b600080fd5b61010960048036038101906101049190611a46565b610307565b6040516101169190611e1d565b60405180910390f35b6101276103e9565b6040516101349190611e38565b60405180910390f35b61015760048036038101906101529190611a98565b61047b565b6040516101649190611db6565b60405180910390f35b61018760048036038101906101829190611a0a565b610500565b005b6101a3600480360381019061019e9190611885565b610618565b005b6101bf60048036038101906101ba9190611885565b610678565b005b6101db60048036038101906101d69190611a98565b610698565b6040516101e89190611db6565b60405180910390f35b61020b60048036038101906102069190611820565b61074a565b604051610218919061201a565b60405180910390f35b61023b6004803603810190610236919061198b565b610802565b604051610248919061201a565b60405180910390f35b6102596108a5565b6040516102669190611e38565b60405180910390f35b6102896004803603810190610284919061194f565b610937565b005b6102a560048036038101906102a091906118d4565b610ab8565b005b6102c160048036038101906102bc9190611a98565b610b1a565b6040516102ce9190611e38565b60405180910390f35b6102f160048036038101906102ec9190611849565b610bc1565b6040516102fe9190611e1d565b60405180910390f35b60007f80ac58cd000000000000000000000000000000000000000000000000000000007bffffffffffffffffffffffffffffffffffffffffffffffffffffffff1916827bffffffffffffffffffffffffffffffffffffffffffffffffffffffff191614806103d257507f5b5e139f000000000000000000000000000000000000000000000000000000007bffffffffffffffffffffffffffffffffffffffffffffffffffffffff1916827bffffffffffffffffffffffffffffffffffffffffffffffffffffffff1916145b806103e257506103e182610c55565b5b9050919050565b6060600080546103f890612270565b80601f016020809104026020016040519081016040528092919081815260200182805461042490612270565b80156104715780601f1061044657610100808354040283529160200191610471565b820191906000526020600020905b81548152906001019060200180831161045457829003601f168201915b5050505050905090565b600061048682610cbf565b6104c5576040517f08c379a00000000000000000000000000000000000000000000000000000000081526004016104bc90611f7a565b60405180910390fd5b6004600083815260200190815260200160002060009054906101000a900473ffffffffffffffffffffffffffffffffffffffff169050919050565b600061050b82610698565b90508073ffffffffffffffffffffffffffffffffffffffff168373ffffffffffffffffffffffffffffffffffffffff16141561057c576040517f08c379a000000000000000000000000000000000000000000000000000000000815260040161057390611fda565b60405180910390fd5b8073ffffffffffffffffffffffffffffffffffffffff1661059b610d2b565b73ffffffffffffffffffffffffffffffffffffffff1614806105ca57506105c9816105c4610d2b565b610bc1565b5b610609576040517f08c379a000000000000000000000000000000000000000000000000000000000815260040161060090611efa565b60405180910390fd5b6106138383610d33565b505050565b610629610623610d2b565b82610dec565b610668576040517f08c379a000000000000000000000000000000000000000000000000000000000815260040161065f90611ffa565b60405180910390fd5b610673838383610eca565b505050565b61069383838360405180602001604052806000815250610ab8565b505050565b6000806002600084815260200190815260200160002060009054906101000a900473ffffffffffffffffffffffffffffffffffffffff169050600073ffffffffffffffffffffffffffffffffffffffff168173ffffffffffffffffffffffffffffffffffffffff161415610741576040517f08c379a000000000000000000000000000000000000000000000000000000000815260040161073890611f3a565b60405180910390fd5b80915050919050565b60008073ffffffffffffffffffffffffffffffffffffffff168273ffffffffffffffffffffffffffffffffffffffff1614156107bb576040517f08c379a00000000000000000000000000000000000000000000000000000000081526004016107b290611f1a565b60405180910390fd5b600360008373ffffffffffffffffffffffffffffffffffffffff1673ffffffffffffffffffffffffffffffffffffffff168152602001908152602001600020549050919050565b600060016007846040516108169190611d7b565b908152602001604051809103902060009054906101000a900460ff1660ff16141561084057600080fd5b60016007846040516108529190611d7b565b908152602001604051809103902060006101000a81548160ff021916908360ff1602179055506108826006611126565b600061088e600661113c565b905061089a858261114a565b809150509392505050565b6060600180546108b490612270565b80601f01602080910402602001604051908101604052809291908181526020018280546108e090612270565b801561092d5780601f106109025761010080835404028352916020019161092d565b820191906000526020600020905b81548152906001019060200180831161091057829003601f168201915b5050505050905090565b61093f610d2b565b73ffffffffffffffffffffffffffffffffffffffff168273ffffffffffffffffffffffffffffffffffffffff1614156109ad576040517f08c379a00000000000000000000000000000000000000000000000000000000081526004016109a490611eba565b60405180910390fd5b80600560006109ba610d2b565b73ffffffffffffffffffffffffffffffffffffffff1673ffffffffffffffffffffffffffffffffffffffff16815260200190815260200160002060008473ffffffffffffffffffffffffffffffffffffffff1673ffffffffffffffffffffffffffffffffffffffff16815260200190815260200160002060006101000a81548160ff0219169083151502179055508173ffffffffffffffffffffffffffffffffffffffff16610a67610d2b565b73ffffffffffffffffffffffffffffffffffffffff167f17307eab39ab6107e8899845ad3d59bd9653f200f220920489ca2b5937696c3183604051610aac9190611e1d565b60405180910390a35050565b610ac9610ac3610d2b565b83610dec565b610b08576040517f08c379a0000000000000000000000000000000000000000000000000000000008152600401610aff90611ffa565b60405180910390fd5b610b1484848484611318565b50505050565b6060610b2582610cbf565b610b64576040517f08c379a0000000000000000000000000000000000000000000000000000000008152600401610b5b90611fba565b60405180910390fd5b6000610b6e611374565b90506000815111610b8e5760405180602001604052806000815250610bb9565b80610b988461138b565b604051602001610ba9929190611d92565b6040516020818303038152906040525b915050919050565b6000600560008473ffffffffffffffffffffffffffffffffffffffff1673ffffffffffffffffffffffffffffffffffffffff16815260200190815260200160002060008373ffffffffffffffffffffffffffffffffffffffff1673ffffffffffffffffffffffffffffffffffffffff16815260200190815260200160002060009054906101000a900460ff16905092915050565b60007f01ffc9a7000000000000000000000000000000000000000000000000000000007bffffffffffffffffffffffffffffffffffffffffffffffffffffffff1916827bffffffffffffffffffffffffffffffffffffffffffffffffffffffff1916149050919050565b60008073ffffffffffffffffffffffffffffffffffffffff166002600084815260200190815260200160002060009054906101000a900473ffffffffffffffffffffffffffffffffffffffff1673ffffffffffffffffffffffffffffffffffffffff1614159050919050565b600033905090565b816004600083815260200190815260200160002060006101000a81548173ffffffffffffffffffffffffffffffffffffffff021916908373ffffffffffffffffffffffffffffffffffffffff160217905550808273ffffffffffffffffffffffffffffffffffffffff16610da683610698565b73ffffffffffffffffffffffffffffffffffffffff167f8c5be1e5ebec7d5bd14f71427d1e84f3dd0314c0f7b2291e5b200ac8c7c3b92560405160405180910390a45050565b6000610df782610cbf565b610e36576040517f08c379a0000000000000000000000000000000000000000000000000000000008152600401610e2d90611eda565b60405180910390fd5b6000610e4183610698565b90508073ffffffffffffffffffffffffffffffffffffffff168473ffffffffffffffffffffffffffffffffffffffff161480610eb057508373ffffffffffffffffffffffffffffffffffffffff16610e988461047b565b73ffffffffffffffffffffffffffffffffffffffff16145b80610ec15750610ec08185610bc1565b5b91505092915050565b8273ffffffffffffffffffffffffffffffffffffffff16610eea82610698565b73ffffffffffffffffffffffffffffffffffffffff1614610f40576040517f08c379a0000000000000000000000000000000000000000000000000000000008152600401610f3790611f9a565b60405180910390fd5b600073ffffffffffffffffffffffffffffffffffffffff168273ffffffffffffffffffffffffffffffffffffffff161415610fb0576040517f08c379a0000000000000000000000000000000000000000000000000000000008152600401610fa790611e9a565b60405180910390fd5b610fbb838383611538565b610fc6600082610d33565b6001600360008573ffffffffffffffffffffffffffffffffffffffff1673ffffffffffffffffffffffffffffffffffffffff16815260200190815260200160002060008282546110169190612186565b925050819055506001600360008473ffffffffffffffffffffffffffffffffffffffff1673ffffffffffffffffffffffffffffffffffffffff168152602001908152602001600020600082825461106d91906120ff565b92505081905550816002600083815260200190815260200160002060006101000a81548173ffffffffffffffffffffffffffffffffffffffff021916908373ffffffffffffffffffffffffffffffffffffffff160217905550808273ffffffffffffffffffffffffffffffffffffffff168473ffffffffffffffffffffffffffffffffffffffff167fddf252ad1be2c89b69c2b068fc378daa952ba7f163c4a11628f55a4df523b3ef60405160405180910390a4505050565b6001816000016000828254019250508190555050565b600081600001549050919050565b600073ffffffffffffffffffffffffffffffffffffffff168273ffffffffffffffffffffffffffffffffffffffff1614156111ba576040517f08c379a00000000000000000000000000000000000000000000000000000000081526004016111b190611f5a565b60405180910390fd5b6111c381610cbf565b15611203576040517f08c379a00000000000000000000000000000000000000000000000000000000081526004016111fa90611e7a565b60405180910390fd5b61120f60008383611538565b6001600360008473ffffffffffffffffffffffffffffffffffffffff1673ffffffffffffffffffffffffffffffffffffffff168152602001908152602001600020600082825461125f91906120ff565b92505081905550816002600083815260200190815260200160002060006101000a81548173ffffffffffffffffffffffffffffffffffffffff021916908373ffffffffffffffffffffffffffffffffffffffff160217905550808273ffffffffffffffffffffffffffffffffffffffff16600073ffffffffffffffffffffffffffffffffffffffff167fddf252ad1be2c89b69c2b068fc378daa952ba7f163c4a11628f55a4df523b3ef60405160405180910390a45050565b611323848484610eca565b61132f8484848461153d565b61136e576040517f08c379a000000000000000000000000000000000000000000000000000000000815260040161136590611e5a565b60405180910390fd5b50505050565b606060405180602001604052806000815250905090565b606060008214156113d3576040518060400160405280600181526020017f30000000000000000000000000000000000000000000000000000000000000008152509050611533565b600082905060005b600082146114055780806113ee906122d3565b915050600a826113fe9190612155565b91506113db565b60008167ffffffffffffffff811115611447577f4e487b7100000000000000000000000000000000000000000000000000000000600052604160045260246000fd5b6040519080825280601f01601f1916602001820160405280156114795781602001600182028036833780820191505090505b5090505b6000851461152c576001826114929190612186565b9150600a856114a1919061231c565b60306114ad91906120ff565b60f81b8183815181106114e9577f4e487b7100000000000000000000000000000000000000000000000000000000600052603260045260246000fd5b60200101907effffffffffffffffffffffffffffffffffffffffffffffffffffffffffffff1916908160001a905350600a856115259190612155565b945061147d565b8093505050505b919050565b505050565b600061155e8473ffffffffffffffffffffffffffffffffffffffff166116d4565b156116c7578373ffffffffffffffffffffffffffffffffffffffff1663150b7a02611587610d2b565b8786866040518563ffffffff1660e01b81526004016115a99493929190611dd1565b602060405180830381600087803b1580156115c357600080fd5b505af19250505080156115f457506040513d601f19601f820116820180604052508101906115f19190611a6f565b60015b611677573d8060008114611624576040519150601f19603f3d011682016040523d82523d6000602084013e611629565b606091505b5060008151141561166f576040517f08c379a000000000000000000000000000000000000000000000000000000000815260040161166690611e5a565b60405180910390fd5b805181602001fd5b63150b7a0260e01b7bffffffffffffffffffffffffffffffffffffffffffffffffffffffff1916817bffffffffffffffffffffffffffffffffffffffffffffffffffffffff1916149150506116cc565b600190505b949350505050565b600080823b905060008111915050919050565b60006116fa6116f58461205a565b612035565b90508281526020810184848401111561171257600080fd5b61171d84828561222e565b509392505050565b60006117386117338461208b565b612035565b90508281526020810184848401111561175057600080fd5b61175b84828561222e565b509392505050565b600081359050611772816127fa565b92915050565b60008135905061178781612811565b92915050565b60008135905061179c81612828565b92915050565b6000815190506117b181612828565b92915050565b600082601f8301126117c857600080fd5b81356117d88482602086016116e7565b91505092915050565b600082601f8301126117f257600080fd5b8135611802848260208601611725565b91505092915050565b60008135905061181a8161283f565b92915050565b60006020828403121561183257600080fd5b600061184084828501611763565b91505092915050565b6000806040838503121561185c57600080fd5b600061186a85828601611763565b925050602061187b85828601611763565b9150509250929050565b60008060006060848603121561189a57600080fd5b60006118a886828701611763565b93505060206118b986828701611763565b92505060406118ca8682870161180b565b9150509250925092565b600080600080608085870312156118ea57600080fd5b60006118f887828801611763565b945050602061190987828801611763565b935050604061191a8782880161180b565b925050606085013567ffffffffffffffff81111561193757600080fd5b611943878288016117b7565b91505092959194509250565b6000806040838503121561196257600080fd5b600061197085828601611763565b925050602061198185828601611778565b9150509250929050565b6000806000606084860312156119a057600080fd5b60006119ae86828701611763565b935050602084013567ffffffffffffffff8111156119cb57600080fd5b6119d7868287016117e1565b925050604084013567ffffffffffffffff8111156119f457600080fd5b611a00868287016117e1565b9150509250925092565b60008060408385031215611a1d57600080fd5b6000611a2b85828601611763565b9250506020611a3c8582860161180b565b9150509250929050565b600060208284031215611a5857600080fd5b6000611a668482850161178d565b91505092915050565b600060208284031215611a8157600080fd5b6000611a8f848285016117a2565b91505092915050565b600060208284031215611aaa57600080fd5b6000611ab88482850161180b565b91505092915050565b611aca816121ba565b82525050565b611ad9816121cc565b82525050565b6000611aea826120bc565b611af481856120d2565b9350611b0481856020860161223d565b611b0d81612409565b840191505092915050565b6000611b23826120c7565b611b2d81856120e3565b9350611b3d81856020860161223d565b611b4681612409565b840191505092915050565b6000611b5c826120c7565b611b6681856120f4565b9350611b7681856020860161223d565b80840191505092915050565b6000611b8f6032836120e3565b9150611b9a8261241a565b604082019050919050565b6000611bb2601c836120e3565b9150611bbd82612469565b602082019050919050565b6000611bd56024836120e3565b9150611be082612492565b604082019050919050565b6000611bf86019836120e3565b9150611c03826124e1565b602082019050919050565b6000611c1b602c836120e3565b9150611c268261250a565b604082019050919050565b6000611c3e6038836120e3565b9150611c4982612559565b604082019050919050565b6000611c61602a836120e3565b9150611c6c826125a8565b604082019050919050565b6000611c846029836120e3565b9150611c8f826125f7565b604082019050919050565b6000611ca76020836120e3565b9150611cb282612646565b602082019050919050565b6000611cca602c836120e3565b9150611cd58261266f565b604082019050919050565b6000611ced6029836120e3565b9150611cf8826126be565b604082019050919050565b6000611d10602f836120e3565b9150611d1b8261270d565b604082019050919050565b6000611d336021836120e3565b9150611d3e8261275c565b604082019050919050565b6000611d566031836120e3565b9150611d61826127ab565b604082019050919050565b611d7581612224565b82525050565b6000611d878284611b51565b915081905092915050565b6000611d9e8285611b51565b9150611daa8284611b51565b91508190509392505050565b6000602082019050611dcb6000830184611ac1565b92915050565b6000608082019050611de66000830187611ac1565b611df36020830186611ac1565b611e006040830185611d6c565b8181036060830152611e128184611adf565b905095945050505050565b6000602082019050611e326000830184611ad0565b92915050565b60006020820190508181036000830152611e528184611b18565b905092915050565b60006020820190508181036000830152611e7381611b82565b9050919050565b60006020820190508181036000830152611e9381611ba5565b9050919050565b60006020820190508181036000830152611eb381611bc8565b9050919050565b60006020820190508181036000830152611ed381611beb565b9050919050565b60006020820190508181036000830152611ef381611c0e565b9050919050565b60006020820190508181036000830152611f1381611c31565b9050919050565b60006020820190508181036000830152611f3381611c54565b9050919050565b60006020820190508181036000830152611f5381611c77565b9050919050565b60006020820190508181036000830152611f7381611c9a565b9050919050565b60006020820190508181036000830152611f9381611cbd565b9050919050565b60006020820190508181036000830152611fb381611ce0565b9050919050565b60006020820190508181036000830152611fd381611d03565b9050919050565b60006020820190508181036000830152611ff381611d26565b9050919050565b6000602082019050818103600083015261201381611d49565b9050919050565b600060208201905061202f6000830184611d6c565b92915050565b600061203f612050565b905061204b82826122a2565b919050565b6000604051905090565b600067ffffffffffffffff821115612075576120746123da565b5b61207e82612409565b9050602081019050919050565b600067ffffffffffffffff8211156120a6576120a56123da565b5b6120af82612409565b9050602081019050919050565b600081519050919050565b600081519050919050565b600082825260208201905092915050565b600082825260208201905092915050565b600081905092915050565b600061210a82612224565b915061211583612224565b9250827fffffffffffffffffffffffffffffffffffffffffffffffffffffffffffffffff0382111561214a5761214961234d565b5b828201905092915050565b600061216082612224565b915061216b83612224565b92508261217b5761217a61237c565b5b828204905092915050565b600061219182612224565b915061219c83612224565b9250828210156121af576121ae61234d565b5b828203905092915050565b60006121c582612204565b9050919050565b60008115159050919050565b60007fffffffff0000000000000000000000000000000000000000000000000000000082169050919050565b600073ffffffffffffffffffffffffffffffffffffffff82169050919050565b6000819050919050565b82818337600083830152505050565b60005b8381101561225b578082015181840152602081019050612240565b8381111561226a576000848401525b50505050565b6000600282049050600182168061228857607f821691505b6020821081141561229c5761229b6123ab565b5b50919050565b6122ab82612409565b810181811067ffffffffffffffff821117156122ca576122c96123da565b5b80604052505050565b60006122de82612224565b91507fffffffffffffffffffffffffffffffffffffffffffffffffffffffffffffffff8214156123115761231061234d565b5b600182019050919050565b600061232782612224565b915061233283612224565b9250826123425761234161237c565b5b828206905092915050565b7f4e487b7100000000000000000000000000000000000000000000000000000000600052601160045260246000fd5b7f4e487b7100000000000000000000000000000000000000000000000000000000600052601260045260246000fd5b7f4e487b7100000000000000000000000000000000000000000000000000000000600052602260045260246000fd5b7f4e487b7100000000000000000000000000000000000000000000000000000000600052604160045260246000fd5b6000601f19601f8301169050919050565b7f4552433732313a207472616e7366657220746f206e6f6e20455243373231526560008201527f63656976657220696d706c656d656e7465720000000000000000000000000000602082015250565b7f4552433732313a20746f6b656e20616c7265616479206d696e74656400000000600082015250565b7f4552433732313a207472616e7366657220746f20746865207a65726f2061646460008201527f7265737300000000000000000000000000000000000000000000000000000000602082015250565b7f4552433732313a20617070726f766520746f2063616c6c657200000000000000600082015250565b7f4552433732313a206f70657261746f7220717565727920666f72206e6f6e657860008201527f697374656e7420746f6b656e0000000000000000000000000000000000000000602082015250565b7f4552433732313a20617070726f76652063616c6c6572206973206e6f74206f7760008201527f6e6572206e6f7220617070726f76656420666f7220616c6c0000000000000000602082015250565b7f4552433732313a2062616c616e636520717565727920666f7220746865207a6560008201527f726f206164647265737300000000000000000000000000000000000000000000602082015250565b7f4552433732313a206f776e657220717565727920666f72206e6f6e657869737460008201527f656e7420746f6b656e0000000000000000000000000000000000000000000000602082015250565b7f4552433732313a206d696e7420746f20746865207a65726f2061646472657373600082015250565b7f4552433732313a20617070726f76656420717565727920666f72206e6f6e657860008201527f697374656e7420746f6b656e0000000000000000000000000000000000000000602082015250565b7f4552433732313a207472616e73666572206f6620746f6b656e2074686174206960008201527f73206e6f74206f776e0000000000000000000000000000000000000000000000602082015250565b7f4552433732314d657461646174613a2055524920717565727920666f72206e6f60008201527f6e6578697374656e7420746f6b656e0000000000000000000000000000000000602082015250565b7f4552433732313a20617070726f76616c20746f2063757272656e74206f776e6560008201527f7200000000000000000000000000000000000000000000000000000000000000602082015250565b7f4552433732313a207472616e736665722063616c6c6572206973206e6f74206f60008201527f776e6572206e6f7220617070726f766564000000000000000000000000000000602082015250565b612803816121ba565b811461280e57600080fd5b50565b61281a816121cc565b811461282557600080fd5b50565b612831816121d8565b811461283c57600080fd5b50565b61284881612224565b811461285357600080fd5b5056fea2646970667358221220378868cf509d2c0f38668dbc5ea9c49da324c82ec8eaede7b2b1ac271fed453364736f6c63430008030033",
  "immutableReferences": {},
  "source": "pragma solidity >=0.4.22 <0.9.0;\nimport \"@openzeppelin/contracts/token/ERC721/ERC721.sol\";\nimport \"@openzeppelin/contracts/utils/Counters.sol\";\nimport \"@openzeppelin/contracts/utils/Strings.sol\";\ncontract UniqueAsset is ERC721{\n\n    using Counters for Counters.Counter;\n    using Strings for uint256;\n    Counters.Counter private _tokenIds;\n    mapping(string => uint8) hashes;\n\n    constructor() public ERC721(\"UniqueAsset\", \"UNA\") {}\n    function awardItem(address recipient, string memory hash, string memory metadata) public returns (uint256) {\n        require(hashes[hash] != 1);\n        hashes[hash] = 1;\n        _tokenIds.increment();\n        uint256 newItemId = _tokenIds.current();\n        _mint(recipient, newItemId);\n        // _setTokenURI(newItemId, metadata);\n        return newItemId;\n    }\n    // function _setTokenURI (uint256 newItemId, string memory metadata) internal virtual{\n    //     hashes[newItemId.toString()] = 100;\n    // }\n}",
  "sourcePath": "/home/oncemore/Blockchain Work/MuCitadel/ipfs_nft/contracts/UniqueAsset.sol",
  "compiler": {
    "name": "solc",
    "version": "0.8.3+commit.8d00100c.Emscripten.clang"
  },
  "schemaVersion": "3.3.4",
  "updatedAt": "2021-04-06T10:56:39.822Z",
  "networkType": "ethereum",
  "devdoc": {
    "kind": "dev",
    "methods": {
      "approve(address,uint256)": {
        "details": "See {IERC721-approve}."
      },
      "balanceOf(address)": {
        "details": "See {IERC721-balanceOf}."
      },
      "getApproved(uint256)": {
        "details": "See {IERC721-getApproved}."
      },
      "isApprovedForAll(address,address)": {
        "details": "See {IERC721-isApprovedForAll}."
      },
      "name()": {
        "details": "See {IERC721Metadata-name}."
      },
      "ownerOf(uint256)": {
        "details": "See {IERC721-ownerOf}."
      },
      "safeTransferFrom(address,address,uint256)": {
        "details": "See {IERC721-safeTransferFrom}."
      },
      "safeTransferFrom(address,address,uint256,bytes)": {
        "details": "See {IERC721-safeTransferFrom}."
      },
      "setApprovalForAll(address,bool)": {
        "details": "See {IERC721-setApprovalForAll}."
      },
      "supportsInterface(bytes4)": {
        "details": "See {IERC165-supportsInterface}."
      },
      "symbol()": {
        "details": "See {IERC721Metadata-symbol}."
      },
      "tokenURI(uint256)": {
        "details": "See {IERC721Metadata-tokenURI}."
      },
      "transferFrom(address,address,uint256)": {
        "details": "See {IERC721-transferFrom}."
      }
    },
    "version": 1
  },
  "userdoc": {
    "kind": "user",
    "methods": {},
    "version": 1
  }
}